:020000040800F2
:10000000580401209902000889470008C3420008EB
:10001000854700083D0B0008ED6000080000000067
:10002000000000000000000000000000DD010008EA
:10003000810C00080000000031020008ED560008A5
:10004000B3020008B3020008B3020008B3020008BC
:10005000B3020008B3020008B3020008B3020008AC
:10006000B3020008B3020008B3020008B30200089C
:10007000B3020008B3020008B3020008B30200088C
:10008000B3020008B3020008B3020008B30200087C
:10009000B3020008B3020008B3020008B30200086C
:1000A000B3020008B3020008B3020008B30200085C
:1000B000B3020008B3020008B3020008B30200084C
:1000C000B3020008B3020008B3020008B30200083C
:1000D000B3020008B3020008B3020008DD600008A4
:1000E000B3020008B3020008B3020008B30200081C
:1000F000B3020008B3020008B3020008B30200080C
:10010000B3020008B3020008B3020008B3020008FB
:10011000B3020008B3020008B3020008B3020008EB
:10012000B3020008B3020008B3020008B3020008DB
:10013000B3020008CD0D0008B3020008B3020008A6
:10014000B3020008B3020008B3020008B3020008BB
:10015000B3020008B3020008B3020008B3020008AB
:10016000B3020008B3020008B3020008B30200089B
:10017000B3020008B3020008B30200080000000048
:10018000B3020008B3020008B3020008B30200087B
:10019000B3020008B3020008B3020008B30200086B
:1001A000B3020008B3020008B3020008B30200085B
:1001B000B3020008B3020008B3020008B30200084B
:1001C000B3020008B3020008DFF80CD000F05EFABA
:1001D0000048004799CA0008580401202B4B1968B1
:1001E0000868B0E8F04F80F30988BFF36F8F4FF0D5
:1001F000000080F311887047000000000648006886
:10020000006880F3088862B661B6BFF34F8FBFF312
:100210006F8F00DF00BF00BF08ED00E0DFF80C00CB
:10022000016841F470010160704700BF88ED00E093
:10023000EFF30980BFF36F8F144B1A681EF0100F95
:1002400008BF20ED108A20E9F04F106008B44FF08D
:10025000500072B680F31188BFF34F8FBFF36F8FDA
:1002600062B616F06BFC4FF0000080F3118808BCFA
:1002700019680868B0E8F04F1EF0100F08BFB0EC26
:10028000108A80F30988BFF36F8F70474000002009
:10029000EFF3058070470000064880470648004796
:1002A000FEE7FEE7FEE7FEE7FEE7FEE7FEE7FEE726
:1002B000FEE7FEE7D1570008C90100082DE9F05F0D
:1002C0000546002092469B468846064681464024C5
:1002D0001BE0284641464746224600F084F9534633
:1002E0005A46C01A914110D311461846224600F0D2
:1002F0006BF92D1A67EB01084F46224601200021B9
:1003000000F062F917EB00094E41201EA4F1010430
:10031000DFDC484631462A464346BDE8F09F0000F0
:100320000649074A0868504343F2390210440860FE
:10033000400870470149086070470000B001002084
:100340006D4EC64110B5431A934209D283188818DE
:1003500003E010F8011D03F8011D521EF9D210BD73
:1003600040EA01039B0703D009E008C9121F08C037
:10037000042AFAD203E011F8013B00F8013B521EB7
:10038000F9D210BDD2B201E000F8012B491EFBD218
:1003900070470022F6E710B513460A460446194690
:1003A000FFF7F0FF204610BD421C10F8011B00298A
:1003B000FBD1801A704710B5002200E0521C835C0C
:1003C0008C5CA34201D1002BF8D1D8B2E1B2401A23
:1003D00010BD30B504460020034600E05B1C93428C
:1003E00003D2E05CCD5C401BF8D030BD034611F871
:1003F000012B00F8012B002AF9D1184670470000A4
:1004000070B50F4D00B92868002412E00A4602E0DA
:100410009E4203D0521C1378002BF9D1DAB222434A
:1004200005D02BB124B1002100F8011B04E00446E3
:10043000401C0678002EE9D12860204670BD0000DF
:10044000B40100200FB400B58DB010A909900B9035
:1004500000914FF0FF300A9000200C900548069064
:10046000054807906A4609A80F9900F0E1F80DB019
:100470005DF814FB4D0600086B0600082DE9FF5FD0
:100480001D464FF0FF3BD5E9014691465F464FF0D0
:100490000008A9697F1C01988847296A8246884715
:1004A0000028F6D1BAF1FF3F0CD024F4C064002E2E
:1004B00019DD600614D5BAF12B0F09D0BAF12D0F52
:1004C0000ED103E0584604B0BDE8F09F44F48064C8
:1004D000A9697F1C01988847761E8246002E02DD9E
:1004E000BAF1300F03D0B9F1000F26D032E0A9697C
:1004F000761E44F400747F1C019888478246002EC3
:1005000005DDBAF1780F06D0BAF1580F03D0B9F172
:10051000000F10D01EE0B9F1000F02D0B9F1100F9A
:1005200018D1A969761E24F400747F1C01988847AD
:100530008246102002E0082000E00A20814609E0FF
:1005400008FB0908A969761E44F400747F1C019811
:1005500088478246002E05DD4946504600F053F894
:100560000028EDDAE96901988847A00502D46FF008
:100570000100A8E7E00725D1600613D5600502D584
:10058000C8F1000000E0404629680A1D2A60096899
:10059000220501D5087015E0220701D5088011E079
:1005A00008600FE02868011D29600068210502D558
:1005B00080F8008006E0210702D5A0F8008001E065
:1005C000C0F8008038467EE7202A04DB203A00FA93
:1005D00002F1002070479140C2F1200320FA03F39A
:1005E000194390407047202A04DB203A21FA02F098
:1005F0000021704721FA02F3D040C2F1200291405D
:100600000843194670473A2800D2303820F02002BB
:10061000412A01D3A2F13700884201D34FF0FF30C5
:100620007047000002681144137801601846704753
:10063000D1600449516104491162002111611146E0
:1006400000F03CB825060008B1060008426842B137
:10065000016811F8013B23B1521EC0E9001218468F
:1006600070470121C160881E704742685AB1C36853
:10067000016843B983688B4205D0491E521CC0E90A
:100680000012002070474FF0FF307047064C074DB6
:1006900006E0E06840F0010394E807009847103452
:1006A000AC42F6D3FFF794FD58800108788001082A
:1006B000C0B24FF4F05100F097B900002DE9F34FAC
:1006C0008BB04FF0000801F10C000C464FF0010B0D
:1006D00046460DF1080A0190626901210198904790
:1006E000051E2DD0252D2CD0216A8847C0B1626906
:1006F000012101989047216A88470028F7D1411EBF
:1007000062690198904700E0761CA1690B988847C0
:10071000216A88470028F7D1E1690B988847DBE711
:10072000A1690B9888470746A84201D1761CD3E7F8
:10073000E1690B9888477F1C02D1B8F1000F6FD098
:1007400046E1002762693D463946019890472A28CC
:1007500004D162690121019890470125DFF8849254
:100760006269012101989047A0F130010A290AD25B
:100770004F45E5DC07EB870100EB4107303FDFD455
:1007800045F01005ECE7E90601D46FF000476C284E
:100790000AD04C2814D0682815D06A280DD07428A7
:1007A0001CD07A281AD01DE0626901210198904777
:1007B0006C2802D045F0040514E045F002050DE078
:1007C00045F020050AE062690121019890476828F8
:1007D00002D045F0080505E045F400656269012195
:1007E00001989047C4E9015765283DD019DC582885
:1007F0007AD00CDC452837D004DC252826D04128C7
:1008000031D131E046282FD047282CD12CE05B286D
:1008100077D0612828D063287CD0642823D15AE07F
:10082000D0E06F2848D008DC66281DD067281BD090
:10083000692821D06E2816D127E0702845D073286A
:1008400068D0752847D078280DD14DE0A1690B9864
:100850008847054625283FF469AFE1690B9888472A
:100860006D1C3FF46AAFB3E023466A466FF00100A7
:100870000B99AFF300809EE045F040006060A80750
:1008800023464FF0000236D43EE0E8077FF447AF3E
:100890002068011D21600068290501D506701BE74D
:1008A000290701D5068017E7A90703D5F117C0E985
:1008B000006111E706600FE745F040006060A8079F
:1008C00023464FF0080216D41EE040F60E0125EA3A
:1008D0000100606016E045F040006060A807234614
:1008E0004FF00A0207D40FE045F040006060A8070F
:1008F00008D5234610226FF001000B99AFF300805A
:1009000059E007E0234610226FF001000B99FFF732
:10091000B5FD50E04FF000094F464B46632802D02A
:100920005B2806D040E0E80601D40120A060012742
:100930003AE062690121019890475E2805D14FF0A5
:1009400001096269494601989047216939B9002136
:100950000A46534643F82120491C0829FADBB0B364
:10096000216969B9C11700EBD16253110AEB830108
:1009700022F01F02821A01200B68904003430B6093
:1009800062690121019890475D28E8D1B9F1000F13
:1009900009D00020514651F82020D24341F82020B0
:1009A000401C0828F7DB02AB224600976FF00100DD
:1009B0000B99AFF3008000280CDA401C08D1BBF182
:1009C000000F05D04FF0FF300DB0BDE8F08FFFE70E
:1009D0004046F9E7E90701D108F1010806444FF064
:1009E000000B79E6CCCCCC0C7F2801D9002208E0A2
:1009F000064A02EB5002C007127800D1120902F039
:100A00000F0201209040084070470000287C010838
:100A100070B58C1810F8015B15F0070301D110F8C0
:100A2000013B2A1106D110F8012B03E010F8016BED
:100A300001F8016B5B1EF9D12B0705D40023521E70
:100A40000DD401F8013BFAE710F8013BCB1A921CD8
:100A500003E013F8015B01F8015B521EF9D5A142D6
:100A6000D8D3002070BD00002DE9F05F04460027B8
:100A7000BA460026B046601D04F02FFE08B9BDE856
:100A8000F09F28A0D4F890108847607928B90022F8
:100A90001146204603F018FCF1E700272DE022481C
:100AA00050F827A0DAF80090601D04F016FE834687
:100AB0005A464946601D04F0D7FCD8B956B9C84615
:100AC000404604F00AFE0646494618A0D4F8902095
:100AD000904710E0404604F000FE83465A464946DF
:100AE000404604F0C1FC0546002D00DA6D42B542D7
:100AF00000DA2E4600BF781CC7B20B4890F85000B1
:100B0000B842CCDCB8F1000F04D032464146601D3B
:100B100004F0BFFC621D07A0D4F89030216898470C
:100B200000BFACE70D0A00003CAF002025730D0AA2
:100B300000000000257325730000000000BFFEE7E1
:100B40002DE9F04F07468C469146002039468346F2
:100B500001F801BBB9F1000F1ED0DCF8004034B938
:100B60004FF0300B81F800B0401CBDE8F08F10E072
:100B700094FBF3F808FB1345002D05DA2A466FEACB
:100B8000020B0BF1310500E03035444601F8015B02
:100B9000401C002CECD125E0DCF800602EB94FF0B1
:100BA000300B81F800B0401CDFE719E0B6FBF3FA28
:100BB0000AFB13620A2A01D230320DE0A2F10A0BBD
:100BC000DDF824E0BEF1000F02D04FF0410E01E04D
:100BD0004FF0610E0BEB0E02564601F8012B401C44
:100BE000002EE3D100BFC0E70FB430B5A1B00024A0
:100BF000002580216846FFF7CCFB25A820900B4BF1
:100C00006A462099249804F051FC0446A2B24FF69B
:100C1000FF736946064803F005FB05460020209057
:100C2000284621B030BC5DF814FB0000350C0008EC
:100C3000F83400202DE9F04105460C4616461F46C3
:100C40004FF0000800BF14E02068401C802809DB3A
:100C5000208882B24FF6FF732946084803F0E2FA73
:100C60000020206020682E542068401C206008F17D
:100C70000108B845E8DBBDE8F0810000F834002049
:100C80007047000070B588B004460E461546022E27
:100C90002FD119A16868FFF78EFB38B9184807F003
:100CA00055F818A0D4F89010884722E019A1686878
:100CB000FFF781FB38B9124807F018F917A0D4F8EC
:100CC0009010884715E018A16868FFF774FB40B9D9
:100CD00069460B4808F0EAFD6846D4F8901088474A
:100CE00007E012A0D4F89010884713A0D4F8901011
:100CF0008847002008B070BD7374617274000000F2
:100D0000DC0300204448435020424547494E0D0A29
:100D10000000000073746F700000000044484350EE
:100D20002053544F500D0A0073746100554E4B4EC2
:100D30004F57210D0A00000055534544206C696B44
:100D4000652074686973203A2064686370205B5D75
:100D50003B205B5D3D73746172742C73746F702CF7
:100D60007374610D0A000000016801F58051896902
:100D700041F00202016801F580518A617047016803
:100D800001F58051896941F40052016801F58051F3
:100D90008A61704738B5044600200090206800F54D
:100DA0008050806940F48011206800F58050816196
:100DB000206800F5805080690090012000F04AFA18
:100DC0000099206800F58050816138BD10B5024857
:100DD00000F03AFB10BD0000B03400202DE9F041D6
:100DE00007460C4615462CB1082C03D0102C01D018
:100DF000182C00D104E040F24C710DA005F0FCF974
:100E00002879697940EA0126174820440664E87881
:100E10000006A97840EA0140697840EA0120297873
:100E200040EA0106104820444664BDE8F081000015
:100E30002E2E2F447269766572732F53544D3332C0
:100E4000463778785F48414C5F4472697665722F07
:100E50005372632F73746D3332663778785F6861CD
:100E60006C5F6574682E63000080024070B5AEB0A0
:100E700004460E46002526B14FF40061E160C9002A
:100E8000A16000201190129013901490159016906C
:100E9000E06918B94FF48060179001E000201790C6
:100EA0004FF400701890002019901A901B901C901D
:100EB0001D9040201E9000201F9020902190229095
:100EC0002390249025902690802027900020289021
:100ED00029902A902B902C902D90206805687148BD
:100EE0000540DDE9110108431399084314990843AB
:100EF000A16808431599084316990843E168084317
:100F00001799084318990843199908431A990843EF
:100F10001B99084305432068056020680568012087
:100F200000F098F920680560DDE91C0108431E996E
:100F300008431F990843209908432199084322999F
:100F400008432399084321684860206845680120C8
:100F500000F080F920684560249821688860259811
:100F60002168C860206885694FF641700540DDE959
:100F7000261040EA014028990843299908432A99F4
:100F800008432B99084305432068856120688569DB
:100F9000012000F05FF920688561DDE92C0108433C
:100FA0002168C8612068C569012000F053F92068F4
:100FB000C561002001904FF0007002900020039066
:100FC0004FF40010049000200590069007900890C0
:100FD00004200990C0050A9040120B9080010C90EB
:100FE00040120D9080200E9000200F9010902068ED
:100FF00000F5805085692C480540DDE90101084372
:10100000039908430499084305990843069908433E
:10101000079908430899084309990843054320683C
:1010200000F580508561206800F5805085690120B9
:1010300000F010F9206800F580508561DDE90A01B3
:1010400008430C9908430D9908430E9908430F99DA
:1010500040EA81001099084340F40001206800F53F
:1010600080500160206800F580500568012000F084
:10107000F1F8206800F580500560A069012809D1C9
:10108000206800F58050C06908490843216801F5CF
:101090008051C861002120466269FFF79FFE2EB093
:1010A00070BD00000F8120FF233FDEF840000100EB
:1010B00038B50446002000902068006840F0040025
:1010C00021680860206800680090012000F0C2F8E4
:1010D00000982168086038BD38B5044600200090AB
:1010E0002068006840F008002168086020680068F7
:1010F0000090012000F0AEF800982168086038BD2B
:101100007047000070B504460D46164604A0D4F89A
:1011100090108847012084F81802002070BD00005C
:101120000D0A5348454C4C206578697465640D0A76
:101130000000000002460B4801683F2901D2481C0C
:1011400000E00020014608480068814202D14FF0CB
:10115000FF3070470548405C107002480160002075
:10116000F7E70000AC000020A8000020FCAE002043
:1011700070B50446002500BF06E0211D51F825008A
:1011800008F04EFB681CC5B22078A842F5DC20466A
:1011900008F046FB70BD38B5044601216846D4F816
:1011A0008C2090479DF8000038BD00002DE9F041EB
:1011B00004460D4694F8980020B90020A4F8940045
:1011C000BDE8F081032D00D30225601D04F085FAEF
:1011D00006466EB13146601DFFF7DBF8002705E0DB
:1011E00011A0D4F890108847781CC7B2B742F7D343
:1011F00004F1980101EBC51004F06FFA04F8860FB2
:101200002078607014F8862904F1980000EBC5116D
:10121000601D04F03EF904F1980202EBC510D4F809
:101220009010884700BFCBE708200800014691F8DE
:101230003500022803D08020486501207047052032
:1012400081F835000868006820F001000A68106025
:101250000020F3E770B5044601F008F8064625467D
:10126000681C10B104480078054400BF00F0FEFF80
:10127000801BA842FAD370BD3800002070B5044628
:101280000D461646002200BF94F84500012801D102
:10129000022070BD012084F8450000BF022084F8C0
:1012A0004400A56200221FE005EB42114FF0004010
:1012B000086044F2F4504860C2EBC21000EB4000FA
:1012C00006EB80008860A069012803D1486820F0FF
:1012D00000404860581E904204D905EB421020306F
:1012E000C86000E0CD60521C9A42DDD3206800F552
:1012F0008050C560012084F8440000BF002084F8BD
:10130000450000BF00BFC4E770B504460D46164651
:10131000002200BF94F84500012801D1022070BDD1
:10132000012084F8450000BF022084F84400E562F3
:1013300000221BE005EB42114FF480100860C2EB65
:10134000C21000EB400006EB80008860E06918B92D
:10135000086840F440000860581E904204D905EB2C
:1013600042102030C86000E0CD60521C9A42E1D3A8
:10137000206800F580500561012084F8440000BF1A
:10138000002084F8450000BF00BFC8E77047014651
:10139000002200BF91F84500012801D102207047CA
:1013A000012081F8450000BF022081F844003AE0A6
:1013B000521C886A006800F44070B0F5007F07D1C5
:1013C000886A086301238B63886AC06888622AE0A0
:1013D000886A006800F4407030B9886B401C8863EC
:1013E000886AC06888621EE08B6A4B63886B401C09
:1013F0008863886B012801D1886A0863886A00685D
:10140000C0F30D40001FC863086B83680B64886AD3
:10141000C0688862012081F8440000BF002081F884
:10142000450000BFBBE7886A006800F0004008B9CB
:10143000042ABDD3012081F8440000BF002081F8B8
:10144000450000BF0120AAE710B50446206800F55A
:101450008050406900F0400040280FD1204600F045
:10146000DFFA4021206800F580504161012084F8B6
:10147000440000BF002084F8450016E0206800F515
:101480008050406900F0010078B1204600F09AFBDE
:101490000121206800F580504161012084F844005A
:1014A00000BF002084F8450000BF4FF48031206861
:1014B00000F580504161206800F58050406900F4DB
:1014C0000040B0F5004F10D12046FFF75FFF4FF40A
:1014D0000041206800F580504161012084F84400FB
:1014E00000BF002084F8450000BF10BD2DE9FC417D
:1014F0000446002500200190BC4E0027804614B908
:101500000120BDE8FC816068012801D0606800B955
:1015100003E0BA21B6A004F06FFEA06910B1A06983
:10152000012800D103E0BB21B1A004F065FEE06911
:1015300010B1E069012800D103E0BC21ACA004F0A7
:101540005BFE206A18B1206AB0F5000F00D103E0FD
:10155000BD21A7A004F050FE94F8440028B9002053
:1015600084F84500204600F06BF900BFAE480068E3
:1015700040F48040AC4908600846006800F48040B0
:10158000009000BF00BFA948006820F40000A749F0
:10159000086008460068216A0843A449086020687A
:1015A00000F58050006840F00101206800F580508F
:1015B000016000F05BFE07460FE000F057FEC01B25
:1015C000B0F5FA7F09D9032084F8440000BF002059
:1015D00084F8450000BF032093E7206800F58050A1
:1015E000006800F001000028E7D12068056925F0B7
:1015F0001C0502F02FF806468D48864205D38D481B
:10160000864202D245F008051AE08A48864205D390
:101610007648864202D245F00C0511E073488642B6
:1016200003D38548864200D20AE08348864205D328
:101630008248864202D245F0040501E045F01005DB
:10164000206805614FF400420021204600F0BCFAFA
:1016500048B14FF0010841462046FFF707FC012042
:1016600084F844004DE7FF20FFF7F4FD6068002890
:1016700071D000F0FBFD074600BF01AA0121204602
:1016800000F060F900F0F2FDC01B41F288318842A1
:101690000FD94FF0010841462046FFF7E7FB012034
:1016A00084F8440000BF002084F8450000BF0320F8
:1016B00027E7019800F004000428DED1820200210F
:1016C000204600F081FA48B14FF00108414620461B
:1016D000FFF7CCFB012084F8440012E700F0C6FDC0
:1016E000074600BF01AA0121204600F02BF900F0B7
:1016F000BDFDC01B41F2883188420FD94FF001086F
:1017000041462046FFF7B2FB012084F8440000BFA9
:10171000002084F8450000BF0320F2E6019800F0A5
:1017200020002028DED101AA1021204600F00AF96D
:1017300048B14FF0010841462046FFF797FB0120D2
:1017400084F84400DDE6019800F0040020B14FF475
:101750000061E16002E00DE00021E160019800F02D
:101760000200022802D10021A16036E04FF480413E
:10177000A16032E0A06818B1A068B0F5804F00D138
:1017800004E040F295111AA004F036FDE068B0F5CF
:10179000006F01D0E06800B904E04FF4CB7114A0F1
:1017A00004F02AFDE068C0F3CF00A168C1F34F0147
:1017B00040EA01020021204600F006FA48B14FF04D
:1017C000010841462046FFF751FB012084F8440000
:1017D00097E640F6FF70FFF73DFD41462046FFF7D4
:1017E00045FB012084F8440000208AE6008793032B
:1017F0002E2E2F447269766572732F53544D3332F7
:10180000463778785F48414C5F4472697665722F3D
:101810005372632F73746D3332663778785F686103
:101820006C5F6574682E63004438024004380140E0
:10183000002D3101C00E160200E1F50580D1F0083F
:1018400010B586B004463949206888426BD100BF84
:1018500000BF3748006840F000703549086008460E
:10186000006800F00070009000BF00BF00BF084695
:10187000006840F0806008600846006800F0806002
:10188000009000BF00BF00BF0846006840F0006045
:1018900008600846006800F00060009000BF00BFCC
:1018A00000BF32200190022002900020039003200C
:1018B00004900B20059001A91E4800F0F3F9862042
:1018C00001900220029000200390032004900B203E
:1018D000059001A9184800F0E5F94FF40050019077
:1018E0000220029000200390032004900B2005901A
:1018F00001A9124800F0D6F94FF4205001900220BF
:10190000029000200390032004900B20059001A971
:101910000B4800F0C7F9002205213D2000F044FDEE
:101920003D2000F00DFD06B010BD0000008002401B
:10193000303802400008024000000240000402402B
:10194000001802402DE9F04104460E4617460025D6
:10195000A846208A202800DC04E04FF4856122A0FC
:1019600004F04AFC94F84400822802D10220BDE829
:10197000F081822084F844002068056905F01C0588
:10198000208A4FF4784101EAC0200543481100EA5B
:101990008610054325F0020545F001052068056124
:1019A00000F064FC804612E000F060FCA0EB080050
:1019B000B0F5803F09D3012084F8440000BF002027
:1019C00084F8450000BF0320D1E72068056905F0D1
:1019D00001000028E8D12068406980B23860012009
:1019E00084F844000020C2E72E2E2F4472697665E9
:1019F00072732F53544D3332463778785F48414CD9
:101A00005F4472697665722F5372632F73746D33FE
:101A100032663778785F68616C5F6574682E630042
:101A200010B50446024800680CF0AEFC10BD000082
:101A30001C00002010B5044600BF94F845000128A2
:101A400001D1022010BD012084F8450000BF022012
:101A500084F844002046FFF73FFB2046FFF728FBB1
:101A60002046FFF797F92046FFF789F92046FFF750
:101A70007BF9012084F8440000BF002084F8450071
:101A800000BF00BFDEE770B502460023002500243A
:101A900000BF92F84500012801D1022070BD01204D
:101AA00082F8450000BF022082F8440049B90120B5
:101AB00082F8440000BF002082F8450000BF0120EA
:101AC000ECE7D06A006800F0004048B1122082F8CC
:101AD000440000BF002082F8450000BF0120DDE780
:101AE00040F2F450814208D9B1FBF0F3B1FBF0F6BB
:101AF00000FB161010B15B1C00E00123012B13D179
:101B0000D06A006840F04050D66A3060C1F30C00E3
:101B1000D66A7060D06A006840F00040D66A3060D3
:101B2000D06AC068D06232E000242EE0D06A00683B
:101B300020F04050D66A30602CB9D06A006840F07E
:101B40008050D66A306040F2F450D66A7060581EF9
:101B5000A04210D1D06A006840F00050D66A3060D0
:101B6000581EC0EBC01000EB4000A1EB8005C5F390
:101B70000C00D66A7060D06A006840F00040D66AF7
:101B80003060D06AC068D062641C9C42CED31068BA
:101B900000F58050406900F0040048B10426106848
:101BA00000F5805046610026106800F580504660C0
:101BB000012082F8440000BF002082F8450000BFE9
:101BC00000BF6BE7704700002DE9F04104460E4668
:101BD00017460025A846208A202800DC04E04FF4A0
:101BE0008E6122A004F008FB94F84400422802D140
:101BF0000220BDE8F081422084F844002068056995
:101C000005F01C05208A4FF4784101EAC020054305
:101C1000481100EA8610054345F0020545F001052C
:101C2000B8B2216848612068056100F01FFB80465A
:101C300012E000F01BFBA0EB0800B0F5803F09D3D9
:101C4000012084F8440000BF002084F8450000BF54
:101C50000320CEE72068056905F001000028E8D1DF
:101C6000012084F844000020C3E700002E2E2F44FA
:101C70007269766572732F53544D333246377878D4
:101C80005F48414C5F4472697665722F5372632FCF
:101C900073746D3332663778785F68616C5F657432
:101CA000682E63002DE9F84305460C460027B94627
:101CB000B8460026FE4885421DD0FE4885421AD00F
:101CC000FD48854217D0FD48854214D0FC48854226
:101CD00011D0FC4885420ED0FB4885420BD0FB4812
:101CE000854208D0FA48854205D0FA48854202D09C
:101CF000F948854200D103E0C121F8A004F07CFA44
:101D0000208880B200B103E0C221F4A004F074FA8C
:101D1000606830B36068012823D06068112820D043
:101D2000606802281DD0606812281AD0FA496068DD
:101D3000884216D0F9496068884212D0F849606834
:101D400088420ED0F749606888420AD0F649606838
:101D5000884206D0F5496068884202D0606803284E
:101D600000D103E0C321DDA004F046FAA06828B149
:101D7000A068012802D0A068022800D103E0C42195
:101D8000D6A004F039FA002700E2012000FA07F992
:101D9000206800EA0908C8457ED16068022802D0A0
:101DA0006068122879D12069002877D0206901283D
:101DB000FBD020690028F8D020690028F5D02069E0
:101DC00000286BD02069012868D02069022865D0DE
:101DD0002069022862D0206902285FD02069032888
:101DE0005CD02069032859D02069032856D0206987
:101DF000032853D02069032850D0206903284DD0F0
:101E0000206904284AD02069042847D02069042882
:101E100044D0206904287ED0206904287BD0206922
:101E2000052878D02069052875D02069052872D04A
:101E3000206905286FD0206905286CD02069052805
:101E400069D02069062866D02069062863D02069F9
:101E5000072860D0206907285DD0206907285AD05C
:101E60002069072857D02069072854D020690728FF
:101E700051D0206907284ED0206908284BD020690E
:101E8000082848D02069082845D02069082842D071
:101E9000206908283FD002E008E155E03BE02069D6
:101EA000082838D02069082835D02069092832D080
:101EB000206909282FD0206909282CD020690928F9
:101EC00029D02069092826D02069092823D0206933
:101ED000092820D020690A281DD020690A281AD094
:101EE00020690A2817D020690A2814D020690B28F5
:101EF00011D020690C280ED020690C280BD0206945
:101F00000C2808D020690F2805D020690D2802D0A0
:101F100020690E2800D103E0D52170A004F06CF9EF
:101F2000F90805F1200050F821607807C10E0F2054
:101F3000884086437907C90E206988400643F9081E
:101F400005F1200040F821602E68790003208840C8
:101F50008643207900F003007900884006432E6014
:101F60006068012808D06068022805D060681128E0
:101F700002D06068122823D1E06840B1E0680128EF
:101F800005D0E068022802D0E068032800D103E011
:101F9000E92152A004F030F9AE68790003208840AE
:101FA00086437900E06888400643AE606E68012091
:101FB000B84086432079C0F30010B84006436E60F5
:101FC000EE6879000320884086437900A068884045
:101FD0000643EE60606800F08050B0F1805F65D12C
:101FE00000BF5348006840F48040514908600846EB
:101FF000006800F48040009000BF00BF4D48B90861
:1020000050F82160B807010F0F2088408643284808
:10201000854201D100202DE02648854201D10120D2
:1020200028E02548854201D1022023E0234885424B
:1020300001D103201EE02248854201D1042019E08D
:102040002048854201D1052014E01F48854201D176
:1020500006200FE01D48854201D107200AE01C48F8
:10206000854201D1082005E01A48854201D10920A6
:1020700000E00A20B907090F884006432D48B90837
:1020800040F821602C48066826EA0806606800F4DB
:102090008030B0F5803F01D146EA08062648066048
:1020A000001D066826EA0806606847E06DE000004B
:1020B000000002400004024000080240000C024000
:1020C000001002400014024000180240001C0240B0
:1020D0000020024000240240002802402E2E2F44FF
:1020E0007269766572732F53544D33324637787860
:1020F0005F48414C5F4472697665722F5372632F5B
:1021000073746D3332663778785F68616C5F6770BF
:10211000696F2E6300000000000011100000211004
:1021200000003110000012100000221000003210D8
:102130004438024008380140003C014000F40030BF
:10214000B0F5003F01D146EA080613480660001DBD
:10215000066826EA0806606800F48010B0F5801F63
:1021600001D146EA08060C48001D0660001D0668FD
:1021700026EA0806606800F40010B0F5001F01D1DF
:1021800046EA08060448083006607F1C102FFFF45A
:10219000FCADBDE8F8830000043C014070B5044686
:1021A0000D46A8B200B104E040F2C11103A004F052
:1021B00023F860696840606170BD00002E2E2F44D6
:1021C0007269766572732F53544D3332463778787F
:1021D0005F48414C5F4472697665722F5372632F7A
:1021E00073746D3332663778785F68616C5F6770DF
:1021F000696F2E630000000070B506460C46154658
:10220000A0B200B104E040F2AB1109A003F0F4FF6A
:102210000DB1012D00D104E04FF4D67104A003F0FC
:10222000EBFF0DB1B46101E02004B06170BD0000AE
:102230002E2E2F447269766572732F53544D3332AC
:10224000463778785F48414C5F4472697665722FF3
:102250005372632F73746D3332663778785F6861B9
:102260006C5F6770696F2E630000000001480068B2
:1022700070470000300000200348006803490978D7
:1022800008440149086070473000002038000020F1
:1022900010B5032000F0F2F80F2000F005F800F070
:1022A00029F8002010BD000070B504460E480078E3
:1022B0004FF47A71B1FBF0F00C490968B1FBF0F50D
:1022C000284601F063FD08B1012070BD102C07D233
:1022D00000222146501E00F067F80548046001E026
:1022E0000120F2E70020F0E7380000203C00002049
:1022F0003400002008B500BF1048006840F080504E
:102300000E4908600846006800F08050009000BF49
:1023100000BF00BF081D006840F48040091D086030
:102320000846006800F48040009000BF00BF002213
:102330000F21901E00F038F808BD00004038024020
:1023400010B50446002C00DB03E0CE2107A003F00B
:1023500053FF00BF04F01F0101208840610989007C
:1023600001F1E021C1F8000100BF10BD2E2E2F4465
:102370007269766572732F53544D333246377878CD
:102380005F48414C5F4472697665722F5372632FC8
:1023900073746D3332663778785F68616C5F636F32
:1023A000727465782E6300002DE9F05F80460C465C
:1023B00015460027102D00D203E0BA2120A003F01B
:1023C0001BFF102C00D203E0BB211DA003F014FF63
:1023D00002F0DCF90746394622462B4601F0070099
:1023E000C0F1070ABAF1040F02D94FF0040A01E064
:1023F000C0F1070AD14600F1040ABAF1070F02D270
:102400004FF0000A01E0A0F1030AD4464FF0010AA0
:102410000AFA09FAAAF1010A0AEA020A0AFA0CFA05
:102420004FF0010B0BFA0CFBABF1010B0BEA030BAA
:102430004AEA0B063146404602F0B0F9BDE8F09F8B
:102440002E2E2F447269766572732F53544D33329A
:10245000463778785F48414C5F4472697665722FE1
:102460005372632F73746D3332663778785F6861A7
:102470006C5F636F727465782E63000010B504465C
:10248000072C07D0062C05D0052C03D0042C01D036
:10249000032C00D103E0A22109A003F0ADFE00BF90
:1024A00004F00701154A10684FF6FF021040144A65
:1024B000024342EA0120114A106000BF10BD000033
:1024C0002E2E2F447269766572732F53544D33321A
:1024D000463778785F48414C5F4472697665722F61
:1024E0005372632F73746D3332663778785F686127
:1024F0006C5F636F727465782E6300000CED00E012
:102500000000FA0538B5002400BF2048006840F0FC
:1025100080501E4908600846006800F08050009016
:1025200000BF00BF1A48006840F4803018490860B6
:10253000FFF79CFE044607E0FFF798FE001BB0F58E
:102540007A7F01D9032038BD1148406800F48030FB
:10255000B0F5803FF0D10E48006840F400300C49DF
:102560000860FFF783FE044607E0FFF77FFE001BCD
:10257000B0F57A7F01D90320E5E70548406800F40B
:102580000030B0F5003FF0D10020DCE740380240D9
:10259000007000400348006840F480700149086002
:1025A00070470000007000402DE9F8430446002603
:1025B00000250027A846A946207800F00100002841
:1025C0007ED1207800F0080008287BD0207800F029
:1025D0001000102876D0207800F04000402871D0FC
:1025E000207800F0800080286CD0208800F4807073
:1025F000B0F5807F66D0208800F40070B0F5007FD1
:1026000060D0208800F48060B0F5806F5AD02088B8
:1026100000F40060B0F5006F54D0208800F48050C2
:10262000B0F5805F4ED0208800F40050B0F5005F18
:1026300048D0208800F48040B0F5804F42D02088F8
:1026400000F40040B0F5004F3CD0206800F480302A
:10265000B0F5803F36D0206800F40030B0F5003F80
:1026600030D0206800F48020B0F5802F2AD0206878
:1026700000F40020B0F5002F24D0206800F4801072
:10268000B0F5801F1ED0206800F40010B0F5001FC8
:1026900018D0206800F48000B0F5800F12D02068B8
:1026A00000F40000B0F5000F0CD0206800F080703E
:1026B000B0F1807F06D0207800F02000202800E0D4
:1026C00000E000D103E08421F8A003F095FD20781C
:1026D00000F00100E0B1606B18B1606BB0F5000F65
:1026E00000D103E08A21F1A003F086FD00BFFE487F
:1026F000006820F40000FC49086008460068616B2F
:102700000843F949086000BF606B08B94FF0010841
:10271000206800F40020B0F5002F22D1E06B38B122
:10272000E06BB0F5801F03D0E06BB0F5001F00D167
:1027300003E09A21DDA003F05FFDEB4884300068E0
:1027400020F44010E16B0843E74984310860E06BF6
:10275000B0F5801F01D14FF00108E06B08B94FF0D0
:102760000109206800F48010B0F5801F22D1206C90
:1027700038B1206CB0F5800F03D0206CB0F5000F9D
:1027800000D103E0AE21C9A003F036FDD648843065
:10279000006820F44000216C0843D349843108606C
:1027A000206CB0F5800F01D14FF00108206C08B902
:1027B0004FF00109206800F08070B0F1807F01D1F6
:1027C0004FF00108207800F0200020287ED1206BF7
:1027D000B0F5807F7ED0206BB0F5007F7AD0C34902
:1027E000206B884276D0C249206B884272D0C149A2
:1027F000206B88426ED0C049206B88426AD0BF49A6
:10280000206B884266D0BE49206B884262D0BD49A9
:10281000206B88425ED0BC49206B88425AD0BB49AD
:10282000206B884256D0BA49206B884252D0B949B1
:10283000206B88424ED0B849206B88424AD0B749B5
:10284000206B884246D0B649206B884242D0B549B9
:10285000206B88423ED0B449206B88423AD0B349BD
:10286000206B884236D0B249206B884232D0B149C1
:10287000206B88422ED0B049206B88422AD0AF49C5
:10288000206B884226D0AE49206B884222D0AD49C9
:10289000206B88421ED0AC49206B88421AD0AB49CD
:1028A000206B884216D0AA49206B884212D0A949D1
:1028B000206B88420ED0A849206B88420AD0A749D5
:1028C000206B884206D0A649206B01E089E001E038
:1028D000884200D103E0C92174A003F08DFC00BF41
:1028E00081483830006840F080507F4938310860B6
:1028F0000846006800F08050009000BF00BF994873
:10290000006840F4807097490860FFF7AFFC064606
:1029100007E0FFF7ABFC801B642802D90320BDE869
:10292000F8839048006800F480700028F1D06E4869
:102930006830006800F4407585B3208E00F4407064
:10294000A8422BD068486830006820F4407566487B
:102950006830006840F48030634968310860084698
:10296000006820F48030086008460560006800F0C8
:10297000010098B1FFF77AFC064608E0FFF776FC05
:10298000801B41F28831884201D90320C7E75648AD
:1029900068300068C0F340000028EFD000BF208EF0
:1029A00000F44070B0F5407F0AD14F48006820F431
:1029B000F8106D4A216B114008434B49086005E04F
:1029C0004948006820F4F8104749086046486830D4
:1029D0000068218EC1F30B01084343496831086048
:1029E00000BF207800F0100010281CD1A06B18B197
:1029F000A06BB0F1807F00D104E040F203112BA066
:102A000003F0FAFB00BF38488430006820F0807083
:102A100035498431086008460068A16B0843324993
:102A20008431086000BF208800F48040B0F5804FFA
:102A300019D1606E38B1606EB0F5803F03D0606E22
:102A4000B0F5003F00D104E040F20D1117A003F0F3
:102A5000D3FB25488830006820F44030616E08437D
:102A6000214988310860208800F40040B0F5004F0B
:102A700019D1A06E38B1A06EB0F5802F03D0A06E32
:102A8000B0F5002F00D104E040F2171107A003F0C9
:102A9000B3FB15488830006820F44020A16E08433D
:102AA000114988310860206860E000002E2E2F4414
:102AB0007269766572732F53544D33324637787886
:102AC0005F48414C5F4472697665722F5372632F81
:102AD00073746D3332663778785F68616C5F7263E8
:102AE000635F65782E63000008380240000302002F
:102AF00000030300000304000003050000030600B8
:102B000000030700000308000003090000030A0097
:102B100000030B0000030C0000030D0000030E0077
:102B200000030F0000031000000311000003120057
:102B30000003130000031400000315000003160037
:102B400000031700000318000003190000031A0017
:102B500000031B0000031C0000031D0000031E00F7
:102B600000031F0000700040FFFCFF0F00F48030E6
:102B7000B0F5803F18D1E06E38B1E06EB0F5801F3F
:102B800003D0E06EB0F5001F00D105E040F2211146
:102B9000AFF2E80003F030FBF848006820F4401082
:102BA000E16E0843F5490860206800F40030B0F594
:102BB000003F18D1206F38B1206FB0F5800F03D0DF
:102BC000206FB0F5000F00D105E040F22B11AFF2FD
:102BD000241003F011FBE948006820F44000216F45
:102BE0000843E6490860207800F04000402819D1E9
:102BF000606C40B1606C012805D0606C032802D085
:102C0000606C022800D105E040F23511AFF264108B
:102C100003F0F2FAD948006820F00300616C084321
:102C2000D6490860207800F08000802819D1A06C77
:102C300040B1A06C042805D0A06C0C2802D0A06C78
:102C4000082800D105E040F23F11AFF2A01003F0D8
:102C5000D3FACA48006820F00C00A16C0843C749A9
:102C60000860208800F48070B0F5807F19D1E06C96
:102C700040B1E06C102805D0E06C302802D0E06C48
:102C8000202800D105E040F24911AFF2E01003F036
:102C9000B3FABA48006820F03000E16C0843B74945
:102CA0000860208800F40070B0F5007F19D1206D15
:102CB00040B1206D402805D0206DC02802D0206D85
:102CC000802800D105E040F25311AFF2202003F03C
:102CD00093FAAA48006820F0C000216D0843A74974
:102CE0000860208800F48060B0F5806F1CD1606DB2
:102CF00058B1606DB0F5807F07D0606DB0F5407F52
:102D000003D0606DB0F5007F00D105E040F25D11A9
:102D1000AFF2682003F070FA9848006820F4407021
:102D2000616D084395490860208800F40060B0F5A3
:102D3000006F1CD1A06D58B1A06DB0F5806F07D0A9
:102D4000A06DB0F5406F03D0A06DB0F5006F00D15D
:102D500005E040F26711AFF2AC2003F04DFA87486E
:102D6000006820F44060A16D084384490860208811
:102D700000F48050B0F5805F1CD1E06D58B1E06D7B
:102D8000B0F5805F07D0E06DB0F5405F03D0E06D37
:102D9000B0F5005F00D105E040F27111AFF2F42010
:102DA00003F02AFA7548006820F44050E16D0843AA
:102DB00072490860208800F40050B0F5005F1CD113
:102DC000206E58B1206EB0F5804F07D0206EB0F560
:102DD000404F03D0206EB0F5004F00D105E040F227
:102DE0007B11AFF2383003F007FA6448006820F432
:102DF0004040216E084361490860206800F480006B
:102E0000B0F5800F14D1A06FB0F1806F01D0A06F2A
:102E100000B905E040F28511AFF2703003F0ECF933
:102E20005648006820F08060A16F0843534908604D
:102E3000206800F40010B0F5001F1AD1E06FB0F167
:102E4000006F01D0E06F00B905E040F28F11AFF2E2
:102E5000A43003F0D1F94948006820F00060E16F28
:102E6000084346490860E06FB0F1006F01D14FF0B0
:102E70000109207800F00800082801D14FF001096D
:102E8000206800F48020B0F5802F1CD1606F58B10D
:102E9000606FB0F1807F07D0606FB0F1007F03D02A
:102EA000606FB0F1407F00D105E040F2A711AFF2B2
:102EB000044003F0A1F93148006820F04070616FD0
:102EC00008432E490860206800F40000B0F5000FA8
:102ED00017D1D4F88000B0F1805F02D0D4F8800020
:102EE00000B905E040F2B111AFF2404003F084F9BF
:102EF0002248006820F08050D4F8801008431F4911
:102F00000860B8F1010F03D02068B0F1007F78D1DC
:102F10001A489038006820F080601849903908609D
:102F2000FFF7A4F9064606E0FFF7A0F9801B642826
:102F300001D90320F3E4114890380068C0F3C06061
:102F40000028F1D16068322804D36068B0F5D87FDA
:102F500000D805E04FF4F671AFF2B04003F04CF941
:102F6000207800F0010020B3606B10BBA06802283D
:102F700006D3A068072803D808E000009038024074
:102F80004FF4F971AFF2DC4003F036F9F74800680E
:102F9000C0F30145F5480068C0F30367606880012D
:102FA00040EA054040EA0761207A41EA0070EF49B3
:102FB0000860206800F40020B0F5002F03D1E06B1A
:102FC000B0F5801F09D0206800F48010B0F5801F94
:102FD0003CD1206CB0F5800F38D1E068022803D3D3
:102FE000E0680F2800D805E040F20221AFF244501B
:102FF00003F002F9606A012804D3606A202801D82E
:1030000006E0A7E04FF40171AFF2605003F0F4F86E
:10301000D6480068C0F30145D4480068C0F3027781
:103020006068800140EA0541207B41EA006040EA97
:103030000770CE490860CD480830006820F01F00B6
:10304000616A491E0843C94908310860206800F0D8
:103050008070B0F1807F24D1206940B120690128BF
:1030600005D02069022802D02069032800D105E09C
:1030700040F21721AFF2CC5003F0BEF8BB48006815
:10308000C0F30365B9480068C0F302776068810146
:10309000208A41EA004040EA056040EA0770B349EF
:1030A0000860206800F00070B0F1007F38D120691E
:1030B00040B12069012805D02069022802D020698A
:1030C000032800D105E040F22621AFF2206003F092
:1030D00093F8A068022803D3A068072800D805E069
:1030E00040F22721AFF23C6003F086F8E068022846
:1030F00003D3E0680F2800D805E04FF40A71AFF25F
:10310000546003F079F860688101208A41EA004147
:10311000207B41EA0061207A41EA0070934908600F
:1031200092488438006840F0806090498439086093
:10313000FFF79CF8064606E0FFF798F8801B642826
:1031400001D9032022E4894884380068C0F3C060B4
:103150000028F1D0B9F1010F7ED18448843800688D
:1031600020F08050814984390860FFF77FF80646D7
:1031700006E0FFF77BF8801B642801D9032005E4F3
:103180007A4884380068C0F340700028F1D1606943
:10319000322804D36069B0F5D87F00D805E040F24A
:1031A0005621AFF2F86003F027F8206800F4002001
:1031B000B0F5002F01D1E06B38B1206800F4801029
:1031C000B0F5801F3CD1206CD0BBA069022803D38E
:1031D000A0690F2800D805E040F25D21AFF23470FD
:1031E00003F00AF8A06A012803D3A06A202800D8B7
:1031F00005E040F25F21AFF24C7002F0FDFF5B484A
:10320000001D0068C0F301455848001D0068C0F368
:1032100002776069800140EA0541207E41EA006052
:1032200040EA07705149091D0860081D006820F434
:10323000F851A06A401E41EA00204C49083108605C
:10324000206800F40010B0F5001F2DD1E06FB0F140
:10325000006F29D1206A00E086E040B1206A012891
:1032600005D0206A022802D0206A032800D105E098
:1032700040F27221AFF2CC7002F0BEFF3B48001D5D
:103280000068C0F303653948001D0068C0F3027789
:1032900060698101208C41EA004040EA056040EA13
:1032A00007703249091D0860207800F008000828DE
:1032B00040D1E069022803D3E069072800D805E07F
:1032C00040F28121AFF61C0002F096FFE06A58B18F
:1032D000E06AB0F5803F07D0E06AB0F5003F03D068
:1032E000E06AB0F5403F00D105E040F28221AFF640
:1032F000440002F081FF1D48001D0068C0F3036513
:103300001A48001D0068C0F301476069800140EA67
:10331000074040EA0561207F41EA00701349091D1A
:103320000860081D006820F44030E16A08430F4936
:10333000083108600D488438006840F080500B491F
:1033400084390860FEF792FF064606E0FEF78EFF1E
:10335000801B642801D90320ECE504488438006808
:10336000C0F340700028F1D00020E3E5843802402B
:1033700070B504460D4600260CB9012070BD2068CA
:10338000012803D320680F2800D804E040F2DA2196
:103390009EA002F031FFEDB1012D1BD0022D19D0FE
:1033A000032D17D0042D15D0052D13D0062D11D0C7
:1033B000072D0FD0082D0DD0092D0BD00A2D09D0C7
:1033C0000B2D07D00C2D05D00D2D03D00E2D01D0C7
:1033D0000F2D00D104E040F2DB218CA002F00CFFA5
:1033E0009848006800F00F00A8420ED29548006887
:1033F00020F00F002843934908600846006800F059
:103400000F00A84201D00120B8E7207800F00200A8
:1034100002283DD1207800F00400042805D18A4814
:10342000006840F4E05088490860207800F0080007
:10343000082805D18448006840F46040824908604B
:10344000A068B8B1A068802814D0A068902811D0D6
:10345000A068A0280ED0A068B0280BD0A068C02813
:1034600008D0A068D02805D0A068E02802D0A068C5
:10347000F02800D104E040F2FF2164A002F0BCFE7D
:103480007148006820F0F000A16808436E490860A8
:10349000207800F00100002848D0606828B16068FA
:1034A000012802D06068022800D104E040F2063111
:1034B00056A002F0A1FE6068012807D162480838D2
:1034C0000068C0F34040A0B9012057E760680228B7
:1034D00007D15D4808380068C0F3406048B9012052
:1034E0004CE7594808380068C0F3400008B901208B
:1034F00044E75548006820F00300616808435249DA
:103500000860FEF7B3FE064608E0FEF7AFFE801B3C
:1035100041F28831884201D903202FE74A480068E8
:1035200000F00C006168B0EB810FEED145480068F7
:1035300000F00F00A8420ED94248006820F00F00AA
:103540002843404908600846006800F00F00A84280
:1035500001D0012012E7207800F0040004281FD1D8
:10356000E06878B1E068B0F5805F0BD0E068B0F556
:10357000A05F07D0E068B0F5C05F03D0E068B0F5A9
:10358000E05F00D104E040F2433120A002F034FEBD
:103590002D48006820F4E050E16808432A4908609B
:1035A000207800F00800082820D1206978B120692F
:1035B000B0F5805F0BD02069B0F5A05F07D020691F
:1035C000B0F5C05F03D02069B0F5E05F00D104E042
:1035D00040F24A310DA002F00FFE1B48006820F4B3
:1035E0006040216940EAC1001749086000F058F8BE
:1035F00015490968C1F30311144A515CC8401449C4
:1036000008600F20FEF750FE0020B7E62E2E2F4454
:103610007269766572732F53544D3332463778781A
:103620005F48414C5F4472697665722F5372632F15
:1036300073746D3332663778785F68616C5F72637C
:10364000632E6300003C024008380240447A0108BF
:103650003C00002001480068704700003C0000204A
:1036600000B5FFF7F7FF04490968C1F38221034A57
:10367000515CC84000BD000008380240547A01087F
:1036800000B5FFF7E7FF04490968C1F34231034A77
:10369000515CC84000BD000008380240547A01085F
:1036A0002DE9F047002400250026A14625480068A2
:1036B00000F00C0020B1042805D008283AD105E01C
:1036C000DFF8849039E0DFF8849036E01D48001F71
:1036D000006800F03F041B48001F006800F48000F1
:1036E00078B11A481749091F0968C1F38811A0FB6E
:1036F00001700146224600233846FCF7DFFD0546EF
:103700000EE011480F49091F0968C1F38811A0FB99
:1037100001700146224600233846FCF7CFFD0546DE
:103720000848001F0068C0F30140401C4600B5FB7C
:10373000F6F902E0DFF8109000BF00BF4846BDE890
:10374000F0870000083802400024F40000127A00DC
:10375000F8B5044600260CB90120F8BD20680F28F2
:1037600000D804E04FF4BA71F8A002F045FD2078CB
:1037700000F00100002873D0606838B16068B0F5CF
:10378000803F03D06068B0F5A02F00D104E04FF473
:10379000BD71EEA002F030FDFA48006800F00C00A8
:1037A00004280DD0F748006800F00C00082813D159
:1037B000F448001F006800F48000B0F5800F0BD1C2
:1037C000F04808380068C0F3404000286AD06068BC
:1037D000002867D10120C0E700BF6068B0F5803FD6
:1037E00008D1E8480838006840F48030E5490839D5
:1037F00008602EE0606868B9E2480838006820F484
:103800008030E049083908600846006820F48020CC
:1038100008601EE06068B0F5A02F0DD1D9480838C7
:10382000006840F48020D7490839086008460068DD
:1038300040F4803008600CE0D2480838006820F47A
:103840008030D049083908600846006820F480209C
:10385000086000BF606898B1FEF708FD054607E004
:1038600020E0FEF703FD401B642801D9032074E724
:10387000C44808380068C0F340400028F1D011E087
:10388000FEF7F4FC054606E0FEF7F0FC401B64285A
:1038900001D9032061E7BB4808380068C0F3404005
:1038A0000028F1D1207800F0020002287DD1E068E4
:1038B00010B1E068012800D104E04FF4D671A3A054
:1038C00002F09AFC20691F2800D804E040F2AD11F4
:1038D0009EA002F091FCAB48006800F00C0058B1CB
:1038E000A848006800F00C0008281CD1A548001F5B
:1038F000006800F48000B0B9A24808380068C0F33E
:10390000400020B1E068012801D0012025E79D4852
:103910000838006820F0F800216940EAC1009949A0
:103920000839086041E0E06828B396480838006824
:1039300040F00100934908390860FEF797FC0546FE
:1039400006E0FEF793FC401B022801D9032004E7A0
:103950008C4808380068C0F340000028F1D089483E
:103960000838006820F0F800216940EAC100854964
:103970000839086019E083480838006820F0010021
:10398000804908390860FEF771FC054606E0FEF73D
:103990006DFC401B022801D90320DEE67948083877
:1039A0000068C0F340000028F1D1207800F0080042
:1039B000082841D1606910B16069012800D104E094
:1039C00040F2ED1161A002F017FC6069D0B16D48C2
:1039D0006C30006840F001006A496C310860FEF705
:1039E00045FC054606E0FEF741FC401B022801D9D4
:1039F0000320B2E663486C300068C0F34000002842
:103A0000F1D019E05F486C30006820F001005D499A
:103A10006C310860FEF72AFC054606E0FEF726FC3E
:103A2000401B022801D9032097E656486C300068F5
:103A3000C0F340000028F1D1207800F004000428F1
:103A40007ED1A06828B1A068012802D0A06805280E
:103A500000D104E040F217213CA002F0CDFB494820
:103A60003830006800F0805080B900BF45483830D9
:103A7000006840F0805043493831086008460068CB
:103A800000F08050009000BF00BF01263E48006853
:103A900000F48070B0B93C48006840F480703A4946
:103AA0000860FEF7E3FB054606E0FEF7DFFB401B80
:103AB000642801D9032050E63348006800F4807080
:103AC0000028F2D000BFA068012808D12D48683036
:103AD000006840F001002B49683108602DE0A068C3
:103AE00068B928486830006820F00100254968312D
:103AF00008600846006820F0040008601DE0A06827
:103B000005280DD11F486830006840F004001D49A9
:103B1000683108600846006840F0010008600CE069
:103B200018486830006820F00100164968310860C4
:103B30000846006820F00400086000BFA06800E0AC
:103B400052E098B3FEF792FB054628E02E2E2F4454
:103B50007269766572732F53544D333246377878D5
:103B60005F48414C5F4472697665722F5372632FD0
:103B700073746D3332663778785F68616C5F726337
:103B8000632E63000838024000700040FEF76EFBB1
:103B9000401B41F28831884201D90320DDE57A4893
:103BA0000068C0F340000028F0D013E0FFE7FEF704
:103BB0005DFB054608E0FEF759FB401B41F28831EA
:103BC000884201D90320C8E56F480068C0F340006F
:103BD0000028F0D1012E07D16B483038006820F062
:103BE0008050694930390860A06928B1A06901286E
:103BF00002D0A069022800D105E040F25B21AFF2BB
:103C0000B40002F0F9FAA06900287CD05E48683858
:103C1000006800F00C00082876D0A069022874D152
:103C2000E06918B1E069B0F5800F00D105E04FF40C
:103C30001971AFF2E80002F0DFFA206A022803D31C
:103C4000206A3F2800D805E040F26521AFF2041059
:103C500002F0D2FA606A322804D3606AB0F5D87FE5
:103C600000D805E040F26621AFF2201002F0C4FA5D
:103C7000A06A022808D0A06A042805D0A06A0628F5
:103C800002D0A06A082800D105E040F26721AFF217
:103C9000441002F0B1FAE06A022803D3E06A0F2868
:103CA00000D805E04FF41A71AFF2601002F0A4FAE8
:103CB00035487038006820F08070334970390860EA
:103CC000FEF7D4FA054606E0FEF7D0FA401B0228BC
:103CD00001D9032041E52C4870380068C0F34060EA
:103CE0000028F1D1E06940F00050216A0843616A80
:103CF00040EA81110122A06AC2EB500041EA004172
:103D00002C20005D02E03CE039E01DE041EA00606B
:103D10001D496C390860081F006840F08070091F59
:103D20000860FEF7A3FA054606E0FEF79FFA401B7F
:103D3000022801D9032010E5134870380068C0F349
:103D400040600028F1D01CE00F487038006820F077
:103D500080700D4970390860FEF788FA054606E064
:103D6000FEF784FA401B022801D90320F5E4064837
:103D700070380068C0F340600028F1D101E00120F4
:103D8000EBE40020E9E400007038024070B504461E
:103D90002546681EB0F1807F01D301200FE0681E28
:103DA0004FF0E02148610F214FF0FF3000F0F6FCAA
:103DB00000204FF0E021886107200861002070BDDD
:103DC00010B50446202084F86A000749206888421C
:103DD00009D101220549204600F0C0F918B1B021EF
:103DE00003A002F009FA10BD0048004020000020A6
:103DF0002E2E2F5372632F75736172742E63000021
:103E00002DE9F04104462068C569206806682068ED
:103E1000876805F00F08B8F1000F0AD105F02000FF
:103E200038B106F0200020B1204601F06AFEBDE85E
:103E3000F081B8F1000F7BD007F0010018B906F44B
:103E40009070002874D005F0010048B106F480702D
:103E500030B1012021680862E06E40F00100E066A8
:103E600005F0020048B107F0010030B102202168DE
:103E70000862E06E40F00400E06605F0040048B11E
:103E800007F0010030B1042021680862E06E40F0C4
:103E90000200E06605F0080060B106F0200010B9ED
:103EA00007F0010030B1082021680862E06E40F0A0
:103EB0000800E066E06E58B305F0200028B106F077
:103EC000200010B1204601F01CFEE06E00F008005A
:103ED00020B92068806800F0400018B3204601F047
:103EE000F0FD2068806800F04000B8B1206880686C
:103EF00020F0400021688860606E50B11748616E04
:103F00000865606EFDF792F910B1606E016D88472B
:103F10000DE02046FFF754FF09E009E02046FFF7D7
:103F20004FFF04E02046FFF74BFF0020E0667EE7EE
:103F300005F0800030B106F0800018B1204602F094
:103F400062F874E705F0400030B106F0400018B1A7
:103F5000204601F0C6FD6AE700BF68E7AB5A0008DB
:103F600010B504460CB9012010BDA069002825D069
:103F70003F49206888421BD03E492068884217D0BC
:103F80003D492068884213D03C49206888420FD0C0
:103F90003B49206888420BD03A492068884207D0C4
:103FA00039492068884203D038492068884200D1C6
:103FB0002AE0FC2136A002F01FF925E02C492068F8
:103FC00088421BD02B492068884217D02A49206894
:103FD000884213D02949206888420FD02849206898
:103FE00088420BD027492068884207D0264920689C
:103FF000884203D025492068884200D104E040F27D
:10400000011123A002F0F8F894F8690028B9002003
:1040100084F86800204600F059F8242084F86900EC
:104020002068006820F0010021680860204601F047
:10403000A1FD012800D197E7606A10B1204601F088
:10404000F9FB2068406820F49040216848602068AF
:10405000806820F02A00216888602068006840F0AD
:10406000010021680860204601F0F8FC7CE70000B0
:10407000001001400044004000480040004C004057
:10408000005000400014014000780040007C0040D7
:104090002E2E2F447269766572732F53544D33322E
:1040A000463778785F48414C5F4472697665722F75
:1040B0005372632F73746D3332663778785F68613B
:1040C0006C5F756172742E630000000010B586B0DD
:1040D0000446142101A8FCF75CF91D4920688842B8
:1040E00034D100BF1B48006840F4802019490860A3
:1040F0000846006800F48020009000BF00BF00BFA9
:1041000014481038006840F008001249103908605F
:104110000846006800F00800009000BF00BF4FF4A0
:104120004070019002200290002003900320049030
:104130000720059001A90848FDF7B4FD00220521DC
:104140002720FEF731F92720FEF7FAF806B010BD58
:104150000048004040380240000C0240034601B1D4
:104160000AB9012070475965A3F85820A3F85A20CE
:1041700000BF9868B0F5805F0AD1186920B940F295
:10418000FF10A3F85C001CE0FF20A3F85C0018E01F
:10419000986848B9186918B9FF20A3F85C0010E0C6
:1041A0007F20A3F85C000CE09868B0F1805F08D134
:1041B000186918B97F20A3F85C0002E03F20A3F83B
:1041C0005C0000BF0020D866222083F86A0000202F
:1041D000C8E7000010B504460B492068884211D199
:1041E0000A48006820B10A480078084909688847E9
:1041F000012207492046FFF7B1FF18B1A52105A00C
:1042000001F0FAFF10BD000000480040240000202B
:10421000200000202E2E2F5372632F75736172744D
:104220002E6300002DE9F84304460D4616461F464E
:104230004FF0000905B116B90120BDE8F883002050
:104240005034E06121206076FEF710F88146268028
:104250006680503C21E0B4F85200401EA4F85200A1
:104260004B46002280212046009701F001FF08B153
:104270000320E2E7A068B0F5805F0AD1206940B969
:10428000A846B8F80000C0F3080021688862AD1C99
:1042900003E015F8010B21688862B4F85200002889
:1042A000D9D14B46002240212046009701F0E0FE84
:1042B00008B10320C1E7202084F869000020BCE792
:1042C000704700BFFEE700002DE9F04105460E46AD
:1042D0001746002400BF08E0084A52F8242050681E
:1042E000D5F890108847601CC4B2044890F850007C
:1042F000A042F1DC0020BDE8F08100003CAF0020CE
:10430000F8B504460E46174619480068C079009073
:104310001748006883791648006842791448006895
:10432000017954F8905F13A0A84711480068C07A3B
:1043300000900F480068837A0D480068427A0C4864
:104340000068017A14A02568A84709480068C07B66
:10435000009007480068837B05480068427B04485A
:104360000068017B54F8905914A0A8470020F8BDBC
:10437000280000200D0A20495076342041646472E0
:1043800065737320202020203A2025752E25752E58
:1043900025752E25750D0A00204950763420537559
:1043A000626E6574206D61736B203A2025752E2531
:1043B000752E25752E25750D0A00000020495076B2
:1043C00034204761746577617920202020203A20CD
:1043D00025752E25752E25752E25750D0A0D0A00BD
:1043E0002DE9F04105460F46164600241BA17068D2
:1043F000FBF7E1FF00282DD119A1B06808F0D6FF26
:10440000044624B917A0D5F89010884722E02078F8
:1044100003281BD1184809F013FE606806F046FE19
:1044200016490860A06806F041FE15490860E0687A
:1044300006F03CFE134908600B46114A0F490E482E
:1044400009F0D3FD0C4809F043FE03E00EA0D5F8B7
:10445000901088470020BDE8F0810000736574006B
:104460002C0000006572723A7374726C6973743D4B
:104470004E554C4C0D0A0000DC03002010000020BB
:104480001400002018000020636F6E6669672065C5
:1044900072720D0A0000000010B5012012F058FCE5
:1044A000074908600021292012F020FC0549086016
:1044B000054806490860064800F0ACFF10BD000042
:1044C000A0000020A4000020890001082400002092
:1044D000F834002038B50446002000900023421E26
:1044E00019460948006812F073FC012808D1684693
:1044F000FCF720FE10B99DF800002070002038BDA8
:104500004FF0FF30FBE70000A400002000B58DB0A5
:1045100000200C900CA809F0ACFE114908600020A6
:104520000B9001210BA809F009FF0E490860142225
:104530000D4906A8FBF706FF002106A809F08AFF2F
:104540000A49086014220849143101A8FBF7FAFE51
:10455000002101A809F07EFF054908600DB000BDEB
:10456000080000200C000020B8790108000000209D
:104570000400002000B587B0142102A8FBF709FF52
:1045800000BF4F48006840F004004D4908600846ED
:10459000006800F00400019000BF00BF00BF0846A3
:1045A000006840F0800008600846006800F0800065
:1045B000019000BF00BF00BF0846006840F0010046
:1045C00008600846006800F00100019000BF00BFCD
:1045D00000BF0846006840F0020008600846006816
:1045E00000F00200019000BF00BF00BF0846006855
:1045F00040F0080008600846006800F008000190DC
:1046000000BF00BF00BF0846006840F040000860DF
:104610000846006800F04000019000BF00BF002283
:1046200044F281012748FDF7E7FD0022402126489A
:10463000FDF7E2FD4FF40050029024480390002063
:10464000049002A92248FDF72DFB44F2810002905C
:104650000120039000200490059002A91948FDF75D
:1046600021FB40200290012003900020049005903F
:1046700002A91548FDF716FB802002900020039048
:10468000049002A91048FDF70DFB4FF4E85002908A
:104690000220039000200490032005900A20069039
:1046A00002A90C48FDF7FEFA4FF4007002900020BA
:1046B0000390049002A90748FDF7F4FA07B000BD83
:1046C000303802400004024000180240000011107F
:1046D00000080240000002400EB50021084611F01B
:1046E0009FFA0020114908601149086011490860CB
:1046F0001148124900220F4BCDE9002102900C4ACB
:104700000A490F4809F0E0FB0D4809F093FC0C48FA
:1047100090F82F00C0F3800018B1094809F0D8FCC8
:1047200002E0074809F08CFC0EBD000010000020DC
:104730001400002018000020195E01082D950008C3
:10474000DC03002010B50D480D4908604FF4E1303E
:10475000486000210A488160C16001610C2141610B
:1047600000218161C161016200200549486208465B
:10477000FFF7F6FB08B1FCF7C3FC10BD0048004092
:10478000F834002000BFFEE77047000002480068D0
:10479000C0F30220704700000CED00E010B50028C7
:1047A00007DA0A07140E054A00F00F031B1FD45442
:1047B00003E00A07130E024A135410BD18ED00E07F
:1047C00000E400E070B505460E4614461CA1606882
:1047D000FBF7F1FD78B91B4890F82F00C0F380007B
:1047E00020B119A0D5F89010884726E01CA0D5F874
:1047F0009010884721E020A16068FBF7DCFD18B924
:10480000104809F01DFC18E01DA16068FBF7D3FDFE
:1048100018B90C4809F05CFC0FE01AA16068FBF7BE
:10482000CAFD30B9074809F00BFC064809F050FCF6
:1048300003E016A0D5F890108847002070BD000056
:1048400073746100DC0300206E657469665F6973D0
:104850005F6C696E6B5F7570204F4B0D0A00000036
:104860006E657469665F69735F6C696E6B5F7570A6
:1048700020444F574E0D0A00646F776E0000000011
:104880007570000072657374617274006572720DE8
:104890000A0000002DE9F04781460E469046711C43
:1048A0001E48FBF776FD324649461C4800F0F1FDF4
:1048B0001A4C002500272CE003E000202070641C27
:1048C0006D1C2078202801D1B542F6D3207822280B
:1048D00011D1641C6D1C48F827407F1C01E0641C4A
:1048E0006D1C2078222801D0B542F8D3002020701A
:1048F000641C6D1C0DE048F827407F1C01E0641C1F
:104900006D1C2078202804D02078092801D0B542D9
:10491000F5D3B542D0D33846BDE8F08790AF00203C
:104920002DE9F04FADF5017D04460E464FF0010A2A
:104930000025304600F0D1FE00F0FF0901AA4946EB
:104940003046FFF7A7FF07466148006800284BD1B3
:10495000002F49DD00BF41E05E4850F825005C496A
:1049600008600846006800685B49086008460068FF
:1049700000F0B3FE00F0FF0816F80800202802D06F
:1049800016F8080040BB424653480199006800F001
:104990006BFD08BB4E480068007BFF2802D14FF03A
:1049A000000A18E04A480068007B20B9012F02D1B4
:1049B0004FF0000A0FE046480068007B002808DD41
:1049C000781E43490968097B884204D14FF0000AE8
:1049D00001E04FF0010A06E0681CC5B23D4890F8BE
:1049E0005000A842B8DC00BF3948006850B1BAF1A5
:1049F000010F07D13948D4F8901088470020344976
:104A0000086060E032480068002855D0304600F069
:104A100064FE00F0FF09304600F05FFE83465A4610
:104A200004F19801304600F01FFD484539D00225B9
:104A30001CE004F1980101EBC5108021FBF7A9FCF3
:104A4000691E04F1980202EBC11000F046FE00F06E
:104A5000FF096A1E04F1980303EBC2111A4602EB28
:104A6000C5104A4600F015FD681EC5B2002DE0DCF9
:104A7000802104F19800FBF78CFC304600F02DFEFD
:104A800000F0FF094A46314604F1980000F001FDAC
:104A9000B4F89600032804D2B4F89600401CA4F899
:104AA00096000B48006801AA39468368204698475B
:104AB00000200749086006E00948D4F890108847AC
:104AC0000020034908600DF5017DBDE8F08F00006E
:104AD000B40000203CAF0020B8000020687D010831
:104AE000C47D01082DE9F04104460D4616461F46D7
:104AF000DDF8188005B104E037221EA129A001F0DD
:104B0000F7FA06B104E038221AA12AA001F0F0FA5F
:104B1000B8F1000F00D004E0392216A129A001F05D
:104B2000E7FA07B104E03A2212A12AA001F0E0FA64
:104B30004FF407712046FBF72CFC44F8885F666051
:104B4000A76044F8888D294800F0F8F9284800F05B
:104B5000F5F9284800F0F2F9274800F0EFF9274866
:104B600000F0ECF9264800F0E9F9264800F0E6F9F3
:104B7000BDE8F0812E2E5C4D6964646C65776172CE
:104B800065735C54686972645F50617274795C54D7
:104B90005F64656275675C745F7368656C6C2E63D7
:104BA0000000000073656E645F636220213D204E4B
:104BB000554C4C00726563765F636220213D204E48
:104BC000554C4C0070726F6D707420213D204E5515
:104BD0004C4C00007368656C6C5F7072696E746633
:104BE00020213D204E554C4C000000005C7A01080D
:104BF0006C7A0108F4790108047A0108147A010832
:104C0000347A0108247A01082DE9F04104461CB9E0
:104C10004FF0FF30BDE8F081002084F81802ADA10C
:104C2000AFA0D4F890209047B3A0D4F89010884754
:104C3000D4F890102068884747E194F8180200B132
:104C400044E12046FCF7A7FA0546FF2D00D13CE1E0
:104C50001B2D02D10120207137E12079012807D1D5
:104C60005B2D02D1022020712FE100202071B8E0DD
:104C7000207902284FD100202071412D06D0422DED
:104C800016D0432D30D0442D42D120E094F894101A
:104C90002046FCF78BFAB4F89410B4F89600401E46
:104CA000814204DAB4F89400401CA4F8940030E087
:104CB00094F894102046FCF779FAB4F89400002890
:104CC00004DDB4F89400401EA4F8940021E094F8A8
:104CD000870040B192A0D4F89010884794F88700DC
:104CE000401E84F8870014E094F8870094F886103A
:104CF00088420CDA94F88730601DC15C89A0D4F832
:104D00009020904794F88700401C84F8870000E0CA
:104D100000BF00BFD9E0092D16D1002604E080A015
:104D2000D4F890108847761C94F88700B042F6DCDF
:104D30002046FBF799FE601D00F0CFFCC0B284F85E
:104D4000860084F88700C0E0602D05D194F88600C5
:104D500010B96079002844D07F2D01D0082D40D1B2
:104D600094F8870000B9B0E014F8860F401E207058
:104D70006078401E607020786178863C884226DD2D
:104D800014F8863F6778DA1B863C7B1C671DD919AF
:104D900094F88770631DF818FBF7D4FA002194F893
:104DA0008620601D815494F8873019185EA0D4F8CD
:104DB0009020904794F8876004E059A0D4F89010B0
:104DC0008847761C94F88600B042F6DA08E058A0CE
:104DD000D4F890108847002194F88620601D8154F3
:104DE00073E094F886007F2802D3002084F88600C0
:104DF0000D2D01D00A2D29D14E48007820B14D4803
:104E00000078A84200D060E04A48057043A0D4F87A
:104E100090108847601D00F060FC20B9D4F8901015
:104E20002068884751E0611D2046FFF779FD00208A
:104E30006834A077E077A08554F8680CA16A683CD4
:104E400088478021601DFBF7A4FA3EE094F88700B4
:104E500094F88610884225DA14F8863F6778DA1BC2
:104E6000863C631DF91894F887305B1C671DD819C0
:104E7000FBF768FA94F88710601D455494F8873062
:104E800019182DA0D4F89020904794F8876004E07A
:104E900023A0D4F890108847761C94F88600B0427E
:104EA000F6DC08E094F88610601D455429461DA0E4
:104EB000D4F890209047002514F8860F401C2070ED
:104EC0006078401C6070863C00BFB6E600BF0020E2
:104ED000A0E600004A616E203237203230313900BE
:104EE0000D0A5348454C4C20286275696C643A2081
:104EF0002573290D0A000000436F70797269676895
:104F000074202863292032303137204E58502053E6
:104F1000656D69636F6E647563746F720D0A00006E
:104F20000800000025630000082573202008000009
:104F300008200800B00000202573000010B50146CD
:104F400000200A4A92F85020142A0CD2074A92F8FC
:104F5000503092F85020521C044C84F850202246C5
:104F600042F8231001E04FF0FF3010BD3CAF0020AD
:104F70002DE9FC5F04468B4616464FF0FF3001904A
:104F800081460090804600250027A3A17068FBF7AA
:104F900012FA00284AD1A2480078052804DBA1A013
:104FA000D4F8901088471BE0A3A0B168FBF703FA80
:104FB00010B94FF0010913E0A0A0B168FBF7FBF9AD
:104FC00010B94FF002090BE09DA0B168FBF7F3F9AF
:104FD00010B94FF0030903E09AA0D4F89010884765
:104FE000B9F1000F1CD000224946022007F000FD55
:104FF00099498B4A127841F8220008468849097875
:1050000050F8210000280CDB854801780078401C0E
:10501000DFF80CC28CF8000090A0D4F890209047E4
:10502000F7E094A0D4F890108847F2E094A170685B
:10503000FBF7C1F9002868D193A1B06808F0B6F970
:10504000054625B991A0D4F89010884759E02878F2
:10505000032804D092A0D4F89010884751E06A4603
:1050600095A16868FBF7EEF90098002845DB6C49CC
:1050700009780098884240DA01AA90A1E868FBF715
:10508000E1F90198002833DD0198B0F5803F2FDA6F
:105090008B48009900EB01170146009A01EB0210C2
:1050A0005021FBF776F902207870019988B206F05A
:1050B00036FB7880A86805F0F9FF78606649009AA9
:1050C00051F822001022394606F076FA8046B8F1EF
:1050D000000F06D1D5E902127AA0D4F89030984793
:1050E0000FE0D5E902127CA0D4F89030984708E090
:1050F0007EA0D4F89010884703E07FA0D4F89010E9
:1051000088472846FCF734F883E07FA17068FBF7F6
:1051100052F900284ED15CA1B06808F047F9054665
:1051200025B95AA0D4F8901088473FE02878022883
:1051300004D077A0D4F89010884737E06A465EA183
:105140006868FBF77FF9009800282BDB3449097861
:105150000098884226DAA868FBF726F982463E4A7C
:10516000A968009B52F823000023524607F010FB69
:105170008046B8F1000F0ADB3748AA68DDF800C0A6
:1051800050F82C1068A0D4F8903098470EE03248C0
:10519000AA68DDF800C050F82C1069A0D4F890304F
:1051A000984703E054A0D4F8901088472846FBF7AE
:1051B000DFFF2EE068A17068FBF7FDF828BB6A46A8
:1051C0003DA1B068FBF73EF90098002818DB1449B0
:1051D00009780098884213DA1F49009A51F8220092
:1051E00006F06AF98046B8F1000F04DB5CA0D4F841
:1051F000901088470DE05DA0D4F89010884708E033
:105200003DA0D4F89010884703E051A0D4F8901046
:1052100088470020BDE8FC9F637265617400000050
:105220002C0000206572723A736F636B65745F6E59
:10523000756D3C3D350D0A00746370007564700037
:1052400072617700706172616D657465722873298F
:10525000206572720D0A0000683500206372656176
:1052600074206F6B2C736F636B65745F69643D258D
:10527000640D0A006372656174206572720D0A0024
:10528000636F6E6E656374002C0000006572723A85
:105290007374726C6973743D4E554C4C0D0A00006A
:1052A0006572723A7374726C6973742D3E6E756DAB
:1052B000213D330D0A000000256400002575000023
:1052C0007C350020636F6E6E6563742025733A250C
:1052D00073206F6B0D0A0000636F6E6E6563742040
:1052E00025733A2573206572720D0A00706F72740F
:1052F000206572720D0A0000736F636B206E756D0E
:10530000206572720D0A000073656E640000000073
:105310006572723A7374726C6973742D3E6E756D3A
:10532000213D320D0A000000736F636B2073656EC0
:10533000642025642C2573206F6B0D0A000000008B
:10534000736F636B2073656E642025642C25732056
:105350006572720D0A000000636C6F7365000000D7
:10536000636C6F7365206F6B0D0A0000636C6F7365
:1053700065206572720D0A00FFF7AEF900BFC82004
:1053800008F0BCFE01211448FCF708FFC82008F013
:10539000B5FE80211048FCF701FFC82008F0AEFEE2
:1053A0004FF480410C48FCF7F9FEC82008F0A6FE37
:1053B0004FF480410848FCF7F1FEC82008F09EFE3B
:1053C00080210548FCF7EAFEC82008F097FE01217D
:1053D0000148FCF7E3FED2E70004024008B5FFF7FE
:1053E0005BF806A0074B084A084900900848FFF7F9
:1053F00079FB00BF0648FFF707FCFBE754232D3E6F
:1054000000000000E90B0008210A0108510A010808
:10541000C001002010B504460D492068884215D10E
:1054200001220C492046FEF799FE18B194210AA0EA
:1054300000F0E2FE2068806840F00100216888608A
:105440002068006840F490702168086010BD00007A
:1054500000480040200000202E2E2F5372632F752D
:10546000736172742E63000030B503460BE013F8CD
:10547000014B11F8015BAC4205D013F8010C11F897
:10548000014C001B30BD101EA2F10102EFD100BF84
:10549000F8E730B503460C461846002100BF02E08D
:1054A000655C5D54491C9142FADB30BD2DE9FF4F2C
:1054B00091B01E464FF0000900270020069003908F
:1054C0000190119D01E1252C05D0E2B2012306A92E
:1054D0001398B047F8E0012004904FF0000A002034
:1054E000079010E0681C05460478302C08DB392C46
:1054F00006DCA4F130000AEB8A0100EB410A02E06D
:105500006D1E0120079007980028EBD0062005901B
:10551000681C054600782E281AD1002005900790B7
:1055200012E0681C05460478302C0ADB392C08DCB4
:10553000A4F13000059901EB810100EB41000590D9
:1055400002E06D1E0120079007980028E9D000E0D6
:105550006D1E681C05460478642C11D0692C0FD090
:10556000662C0DD0462C0BD0782C09D0582C07D0A7
:105570006F2C05D0622C03D0702C01D0752C70D10B
:10558000642C01D0692C11D11298006802901298F5
:10559000001D129004980A23012202A9009008A875
:1055A000FBF7CEFA074608A800EB0709582C01D0F4
:1055B000782C15D1782C01D1002004901298006825
:1055C00001901298001D129004981023002201A946
:1055D000009008A8FBF7B4FA074608A800EB0709F3
:1055E0006F2C05D0622C03D0702C01D0752C22D1E9
:1055F0001298006801901298001D12906F2C02D131
:10560000082003900BE0622C02D10220039006E0F8
:10561000702C02D11020039001E00A20039004981E
:105620000090002201A908A8039BFBF789FA07460E
:1056300008A800EB0709AAEB0703202206A9139884
:10564000B047B9F1000F3ED005E019F80129012358
:1056500006A91398B04799F800000028F5D132E068
:10566000FFE7632C0BD1129810F8041B01F0FF0B1D
:1056700012905A46012306A91398B04723E0732CD1
:105680001CD1129850F8048B1290B8F1000F1AD068
:105690004046FAF789FE0746AAEB0703202206A92F
:1056A0001398B04705E018F8012B012306A91398B9
:1056B000B04798F800000028F5D104E0E2B20123D9
:1056C00006A91398B04700BF6D1C2878041E7FF40C
:1056D000FAAE069815B0BDE8F08F0146002001E053
:1056E000491C401C0A78002AFAD1704710B5FCF713
:1056F000C3FD08F0A7FE10BD00B5B3B0302127A848
:10570000FAF747FE142122A8FAF743FE842101A8E4
:10571000FAF73FFEFCF73EFF00BF2B48006840F061
:105720008050294908600846006800F080500090C9
:1057300000BF00BF00BF2548006840F44040234937
:1057400008600846006800F44040009000BF00BFB9
:10575000012027904FF4A020289002202D90410591
:1057600027A8C16104210162D8214162022181621E
:105770000321C162FDF7ECFF08B1FBF7C1FCFCF7A8
:10578000C1FE08B1FBF7BCFC0F2022900220239041
:10579000002024904FF4A05025904FF48050269084
:1057A000072122A8FDF7E4FD08B1FBF7A9FC4FF49F
:1057B000807001900020149001A8FCF7F5FE08B15C
:1057C000FBF79EFC33B000BD403802400070004043
:1057D0001448006840F470001249086012480068DC
:1057E00040F001001049086000200F4908310860AE
:1057F0000D4800680D4908400B4908600C48091D18
:105800000860081F006820F48020091F086000203D
:1058100005490C3108604FF000600249803908608A
:105820007047000088ED00E000380240FFFFF6FE00
:105830001030002410B50446606AFF2800D804E048
:1058400040F2937176A000F0D7FC94F8240000F0A9
:10585000010098B1A06A18B1A06AB0F5003F00D16C
:1058600004E04FF4F3616EA000F0C6FC20684068CD
:1058700020F40030A16A08432168486094F82400AD
:1058800000F0020098B1E06A18B1E06AB0F5803F1C
:1058900000D104E040F29F7161A000F0ADFC2068EF
:1058A000406820F48030E16A08432168486094F839
:1058B000240000F0040098B1206B18B1206BB0F503
:1058C000802F00D104E040F2A67155A000F094FCB6
:1058D0002068406820F48020216B084321684860DC
:1058E00094F8240000F0080098B1606B18B1606B68
:1058F000B0F5004F00D104E040F2AD7148A000F0D7
:105900007BFC2068406820F40040616B08432168FC
:10591000486094F8240000F0100098B1A06B18B112
:10592000A06BB0F5805F00D104E040F2B4713CA000
:1059300000F062FC2068806820F48050A16B08436E
:105940002168886094F8240000F0200098B1E06B92
:1059500018B1E06BB0F5005F00D104E040F2BB711C
:105960002FA000F049FC2068806820F40050E16B13
:1059700008432168886094F8240000F04000002863
:1059800033D0206C18B1206CB0F5801F00D104E03A
:1059900040F2C27122A000F02FFC2068406820F481
:1059A0008010216C084321684860206CB0F5801F8E
:1059B0001BD1606C58B1606CB0F5001F07D0606CF3
:1059C000B0F5800F03D0606CB0F5C00F00D104E0DB
:1059D00040F2C77112A000F00FFC2068406820F46C
:1059E000C000616C08432168486094F8240000F00E
:1059F000800098B1A06C18B1A06CB0F5002F00D158
:105A000004E040F2CF7106A000F0F6FB2068406889
:105A100020F40020A16C08432168486010BD0000FC
:105A20002E2E2F447269766572732F53544D333284
:105A3000463778785F48414C5F4472697665722FCB
:105A40005372632F73746D3332663778785F686191
:105A50006C5F756172742E630000000038B50446F7
:105A600000250020E066FCF701FC05462068006880
:105A700000F0080008280CD16FF07E402B46002271
:105A80004FF400110090204600F0F2FA08B1032014
:105A900038BD202084F8690084F86A0000BF002027
:105AA00084F8680000BF00BFF2E770B50546AC6B34
:105AB0000020A4F85A00A4F852002046FEF780F90E
:105AC00070BD0168096821F4907102681160016875
:105AD000896821F0010102689160202180F86A1034
